B13100FE312000000019424800032720210
PT00001103100            518599   3910299000611032721032720210000000007958232788593MedRisk, LLC        000000000039742     FEL            0000000000000   00000000000000000000000000
PT00001103100            518599   3910299000611032721032720210000000004574232788593MedRisk, LLC        000000000039742     FEL            0000000000000   00000000000000000000000000
PT00001103100            518599   3910299000611032721032720210000000003656232788593MedRisk, LLC        000000000039742     FEL            0000000000000   00000000000000000000000000
PT00001103100            518599   3910299000611032721032720210000000003857232788593MedRisk, LLC        000000000039743     FEL            0000000000000   00000000000000000000000000
PT00001103100            518599   3910299000611032721032720210000000004443232788593MedRisk, LLC        000000000039743     FEL            0000000000000   00000000000000000000000000
PT00001103100            518599   3910299000611032721032720210000000005029232788593MedRisk, LLC        000000000039743     FEL            0000000000000   00000000000000000000000000
PT00001103100            518599   3910299000611032721032720210000000003685232788593MEDRISK             000000000039740     FEL            0000000000000   00000000000000000000000000
PT00001103100            518599   3910299000611032721032720210000000015538232788593MEDRISK             000000000039740     FEL            0000000000000   00000000000000000000000000
PT00001103100            518599   3910299000611032721032720210000000005883232788593MEDRISK             000000000039740     FEL            0000000000000   00000000000000000000000000
PT00001103100            518599   3910299000611032721032720210000000003685232788593MEDRISK             000000000039741     FEL            0000000000000   00000000000000000000000000
PT00001103100            518599   3910299000611032721032720210000000015538232788593MEDRISK             000000000039741     FEL            0000000000000   00000000000000000000000000
PT00001103100            518599   3910299000611032721032720210000000021896232862027NOVACARE OP REHABILI000000000039786     FEL            0000000000000   00000000000000000000000000
PT00001103100            518599   3910299000611032721032720210000000008457232862027NOVACARE OP REHABILI000000000039786     FEL            0000000000000   00000000000000000000000000
PT00001103100            518299   3910299000611032721032720210000000014130461084856Adva-Net            000000000039766     FEL            0000000000000   00000000000000000000000000
PT00001103100            518299   3910299000611032721032720210000000005390461084856Adva-Net            000000000039766     FEL            0000000000000   00000000000000000000000000
PT00001103100            518299   3910299000611032721032720210000000004428461084856Adva-Net            000000000039766     FEL            0000000000000   00000000000000000000000000
PT00001103100            518599   3910299000611032721032720210000000000841461084856Adva-Net            000000000039766     FEL            0000000000000   00000000000000000000000000
PT00001103100            518599   3910299000611032721032720210000000003596461084856Adva-Net            000000000039766     FEL            0000000000000   00000000000000000000000000
PT00001103100            518299   3910299000611032721032720210000000157327461084856Adva-Net            000000000039767     FEL            0000000000000   00000000000000000000000000
PT00001103100            518299   3910299000611032721032720210000000011270461084856Adva-Net            000000000039768     FEL            0000000000000   00000000000000000000000000
PT00001103100            518299   3910299000611032721032720210000000004213461084856Adva-Net            000000000039768     FEL            0000000000000   00000000000000000000000000
PT00001103100            518299   3910299000611032721032720210000000008010273540869ONE PENN CENTER  WEI000000000039788     FEL            0000000000000   00000000000000000000000000
PT00001103100            518299   3910299000611032721032720210000000008010273540869ONE PENN CENTER  WEI000000000039789     FEL            0000000000000   00000000000000000000000000
PT00001103100            518299   3910299000611032721032720210000000007266231742016BARDEN THORWARTH DAU000000000039771     FEL            0000000000000   00000000000000000000000000
PT00001103100            518599   3910299000611032721032720210000000007714232788593MedRisk, LLC        000000000039783     FEL            0000000000000   00000000000000000000000000
PT00001103100            518599   3910299000611032721032720210000000004443232788593MedRisk, LLC        000000000039783     FEL            0000000000000   00000000000000000000000000
PT00001103100            518599   3910299000611032721032720210000000003539232788593MedRisk, LLC        000000000039783     FEL            0000000000000   00000000000000000000000000
PT00001103100            518599   3910299000611032721032720210000000005029232788593MedRisk, LLC        000000000039783     FEL            0000000000000   00000000000000000000000000
PT00001103100            518599   3910299000611032721032720210000000011349232788593MEDRISK INC         000000000039774     FEL            0000000000000   00000000000000000000000000
PT00001103100            518599   3910299000611032721032720210000000004350232788593MEDRISK INC         000000000039774     FEL            0000000000000   00000000000000000000000000
PT00001103100            518599   3910299000611032721032720210000000003477232788593MEDRISK INC         000000000039774     FEL            0000000000000   00000000000000000000000000
PT00001103100            518599   3910299000611032721032720210000000004898232788593MEDRISK INC         000000000039774     FEL            0000000000000   00000000000000000000000000
PT00001103100            518599   3910299000611032721032720210000000003857232788593MedRisk, LLC        000000000039821     FEL            0000000000000   00000000000000000000000000
PT00001103100            518599   3910299000611032721032720210000000004443232788593MedRisk, LLC        000000000039821     FEL            0000000000000   00000000000000000000000000
PT00001103100            518599   3910299000611032721032720210000000010057232788593MedRisk, LLC        000000000039821     FEL            0000000000000   00000000000000000000000000
PT00001103100            518599   3910299000611032721032720210000000003685232788593MEDRISK             000000000039819     FEL            0000000000000   00000000000000000000000000
PT00001103100            518599   3910299000611032721032720210000000015538232788593MEDRISK             000000000039819     FEL            0000000000000   00000000000000000000000000
PT00001103100            518599   3910299000611032721032720210000000003160232788593MEDRISK             000000000039820     FEL            0000000000000   00000000000000000000000000
PT00001103100            518599   3910299000611032721032720210000000003633232788593MEDRISK             000000000039820     FEL            0000000000000   00000000000000000000000000
PT00001103100            518599   3910299000611032721032720210000000004091232788593MEDRISK             000000000039820     FEL            0000000000000   00000000000000000000000000
PT00001103100            518599   3910299000611032721032720210000000012018273540869ONE PENN CENTER  WEI000000000039839     FEL            0000000000000   00000000000000000000000000
PT00001103100            518599   3910299000611032721032720210000000010372273540869ONE PENN CENTER  WEI000000000039839     FEL            0000000000000   00000000000000000000000000
PT00001103100            518599   3910299000611032721032720210000000007560273540869ONE PENN CENTER  WEI000000000039839     FEL            0000000000000   00000000000000000000000000
PT00001103100            518599   3910299000611032721032720210000000003681273540869ONE PENN CENTER  WEI000000000039839     FEL            0000000000000   00000000000000000000000000
PT00001103100            518599   3910299000611032721032720210000000001896273540869ONE PENN CENTER  WEI000000000039839     FEL            0000000000000   00000000000000000000000000
PT00001103100            518599   3910299000611032721032720210000000001614273540869ONE PENN CENTER  WEI000000000039839     FEL            0000000000000   00000000000000000000000000
PT00001103100            518299   3910299000611032721032720210000000008010273540869ONE PENN CENTER  WEI000000000039840     FEL            0000000000000   00000000000000000000000000
PT00001103100            518299   3910299000611032721032720210000000014130461084856Adva-Net            000000000039830     FEL            0000000000000   00000000000000000000000000
PT00001103100            518299   3910299000611032721032720210000000005390461084856Adva-Net            000000000039830     FEL            0000000000000   00000000000000000000000000
PT00001103100            518299   3910299000611032721032720210000000004428461084856Adva-Net            000000000039830     FEL            0000000000000   00000000000000000000000000
PT00001103100            518599   3910299000611032721032720210000000000841461084856Adva-Net            000000000039830     FEL            0000000000000   00000000000000000000000000
PT00001103100            518599   3910299000611032721032720210000000003596461084856Adva-Net            000000000039830     FEL            0000000000000   00000000000000000000000000
PT00001103100            518299   3910299000611032721032720210000000004514273540869ONE PENN CENTER  WEI000000000039841     FEL            0000000000000   00000000000000000000000000
PT00001103100            518599   3910299000611032721032720210000000011610273540869ONE PENN CENTER  WEI000000000039841     FEL            0000000000000   00000000000000000000000000
PT00001103100            518599   3910299000611032721032720210000000005320273540869ONE PENN CENTER  WEI000000000039841     FEL            0000000000000   00000000000000000000000000
PT00001103100            518599   3910299000611032721032720210000000007560273540869ONE PENN CENTER  WEI000000000039841     FEL            0000000000000   00000000000000000000000000
PT00001103100            518599   3910299000611032721032720210000000007241273540869ONE PENN CENTER  WEI000000000039841     FEL            0000000000000   00000000000000000000000000
PT00001103100            518599   3910299000611032721032720210000000007241273540869ONE PENN CENTER  WEI000000000039841     FEL            0000000000000   00000000000000000000000000
PT00001103100            518599   3910299000611032721032720210000000011610273540869ONE PENN CENTER  WEI000000000039841     FEL            0000000000000   00000000000000000000000000
PT00001103100            518599   3910299000611032721032720210000000007560273540869ONE PENN CENTER  WEI000000000039841     FEL            0000000000000   00000000000000000000000000
PT00001103100            518599   3910299000611032721032720210000000011610273540869ONE PENN CENTER  WEI000000000039841     FEL            0000000000000   00000000000000000000000000
PT00001103100            518599   3910299000611032721032720210000000007241273540869ONE PENN CENTER  WEI000000000039841     FEL            0000000000000   00000000000000000000000000
PT00001103100            518599   3910299000611032721032720210000000007560273540869ONE PENN CENTER  WEI000000000039841     FEL            0000000000000   00000000000000000000000000
PT00001103100            518599   3910299000611032721032720210000000007740273540869ONE PENN CENTER  WEI000000000039841     FEL            0000000000000   00000000000000000000000000
PT00001103100            518599   3910299000611032721032720210000000007560273540869ONE PENN CENTER  WEI000000000039841     FEL            0000000000000   00000000000000000000000000
PT00001103100            518599   3910299000611032721032720210000000005320273540869ONE PENN CENTER  WEI000000000039841     FEL            0000000000000   00000000000000000000000000
PT00001103100            518599   3910299000611032721032720210000000020129210634484INSPIRA MEDICAL CENT000000000039880     FEL            0000000000000   00000000000000000000000000
PT00001103100            518299   3910299000611032721032720210000000005773232263455Southeast Radiology 000000000039897     FEL            0000000000000   00000000000000000000000000
PT00001103100            518599   3910299000611032721032720210000000002002232667866EXCEL PHYSICAL THERA000000000039878     FEL            0000000000000   00000000000000000000000000
PT00001103100            518599   3910299000611032721032720210000000008457232667866EXCEL PHYSICAL THERA000000000039878     FEL            0000000000000   00000000000000000000000000
PT00001103100            518599   3910299000611032721032720210000000004861232667866EXCEL PHYSICAL THERA000000000039878     FEL            0000000000000   00000000000000000000000000
PT00001103100            518599   3910299000611032721032720210000000003886232667866EXCEL PHYSICAL THERA000000000039878     FEL            0000000000000   00000000000000000000000000
PT00001103100            518599   3910299000611032721032720210000000002002232667866EXCEL PHYSICAL THERA000000000039879     FEL            0000000000000   00000000000000000000000000
PT00001103100            518599   3910299000611032721032720210000000008457232667866EXCEL PHYSICAL THERA000000000039879     FEL            0000000000000   00000000000000000000000000
PT00001103100            518599   3910299000611032721032720210000000004861232667866EXCEL PHYSICAL THERA000000000039879     FEL            0000000000000   00000000000000000000000000
PT00001103100            518599   3910299000611032721032720210000000003886232667866EXCEL PHYSICAL THERA000000000039879     FEL            0000000000000   00000000000000000000000000
PT00001103100            518599   3910299000611032721032720210000000002002232667866EXCEL PHYSICAL THERA000000000039879     FEL            0000000000000   00000000000000000000000000
PT00001103100            518599   3910299000611032721032720210000000012685232667866EXCEL PHYSICAL THERA000000000039879     FEL            0000000000000   00000000000000000000000000
PT00001103100            518599   3910299000611032721032720210000000004861232667866EXCEL PHYSICAL THERA000000000039879     FEL            0000000000000   00000000000000000000000000
PT00001103100            518599   3910299000611032721032720210000000003886232667866EXCEL PHYSICAL THERA000000000039879     FEL            0000000000000   00000000000000000000000000
PT00001103100            518599   3910299000611032721032720210000000011610273540869ONE PENN CENTER  WEI000000000039889     FEL            0000000000000   00000000000000000000000000
PT00001103100            518599   3910299000611032721032720210000000005320273540869ONE PENN CENTER  WEI000000000039889     FEL            0000000000000   00000000000000000000000000
PT00001103100            518599   3910299000611032721032720210000000007241273540869ONE PENN CENTER  WEI000000000039889     FEL            0000000000000   00000000000000000000000000
PT00001103100            518599   3910299000611032721032720210000000002036273540869ONE PENN CENTER  WEI000000000039889     FEL            0000000000000   00000000000000000000000000
PT00001103100            518599   3910299000611032721032720210000000007560273540869ONE PENN CENTER  WEI000000000039889     FEL            0000000000000   00000000000000000000000000
PT00001103100            518599   3910299000611032721032720210000000002083273540869ONE PENN CENTER  WEI000000000039889     FEL            0000000000000   00000000000000000000000000
PT00001103100            518199   3910299000611032721032720210000000345000471287214DigiStream Mid-Atlan000000000039877     FEL            0000000000000   00000000000000000000000000
PT00001103100            518299   3910299000611032721032720210000000008436232809585JEFFERSON UNIVERSITY000000000039884     FEL            0000000000000   00000000000000000000000000
PT00001103100            518199   3910299000611032721032720210000000001085362685608Sedgwick Indexing   000000000039996     FEL            0000000000000   00000000000000000000000000
PT00001103100            518199   3910299000611032721032720210000000001085362685608Sedgwick Indexing   000000000039996     FEL            0000000000000   00000000000000000000000000
PT00001103100            518199   3910299000611032721032720210000000001085362685608Sedgwick Indexing   000000000039996     FEL            0000000000000   00000000000000000000000000
PT00001103100            518199   3910299000611032721032720210000000001085362685608Sedgwick Indexing   000000000039996     FEL            0000000000000   00000000000000000000000000
PT00001103100            518199   3910299000611032721032720210000000006420232146815The MCS Group, Inc. 000000000040003     FEL            0000000000000   00000000000000000000000000
PT00001103100            518599   3910299000611032721032720210000000005029232788593MEDRISK INC         000000000040043     FEL            0000000000000   00000000000000000000000000
PT00001103100            518599   3910299000611032721032720210000000001791232788593MEDRISK INC         000000000040044     FEL            0000000000000   00000000000000000000000000
PT00001103100            518599   3910299000611032721032720210000000011350232788593MEDRISK INC         000000000040044     FEL            0000000000000   00000000000000000000000000
PT00001103100            518599   3910299000611032721032720210000000004898232788593MEDRISK INC         000000000040044     FEL            0000000000000   00000000000000000000000000
PT00001103100            518599   3910299000611032721032720210000000007714232788593MEDRISK INC         000000000040045     FEL            0000000000000   00000000000000000000000000
PT00001103100            518599   3910299000611032721032720210000000004443232788593MEDRISK INC         000000000040045     FEL            0000000000000   00000000000000000000000000
PT00001103100            518599   3910299000611032721032720210000000005029232788593MEDRISK INC         000000000040045     FEL            0000000000000   00000000000000000000000000
PT00001103100            518199   3910299000611032721032720210000000024333232146815The MCS Group, Inc. 000000000040077     FEL            0000000000000   00000000000000000000000000
PT00001103100            518199   3910299000611032721032720210000000053193232146815The MCS Group, Inc. 000000000040078     FEL            0000000000000   00000000000000000000000000
PT00001103100            518199   3910299000611032721032720210000000230000233083020Detectives-Private I000000000040033     FEL            0000000000000   00000000000000000000000000
PT00001103100            518599   3910299000611032721032720210000000001247232856880RECONSTRUCTIVE ORTHO000000000040072     FEL            0000000000000   00000000000000000000000000
PT00001103100            518599   3910299000611032721032720210000000003253232856880RECONSTRUCTIVE ORTHO000000000040072     FEL            0000000000000   00000000000000000000000000
PT00001103100            518299   3910299000611032721032720210000000012392900870615PHOENIXVILLE ORTHOPE000000000040061     FEL            0000000000000   00000000000000000000000000
PT00001103100            518199   3910299000611032721032720210000000212500233083020Detectives-Private I000000000040034     FEL            0000000000000   00000000000000000000000000
PT00001103100            518199   3910299000611032721032720210000000217500233083020Detectives-Private I000000000040035     FEL            0000000000000   00000000000000000000000000
PT00001103100            518299   3910299000611032721032720210000000014130461084856Adva-Net            000000000040090     FEL            0000000000000   00000000000000000000000000
PT00001103100            518299   3910299000611032721032720210000000005390461084856Adva-Net            000000000040090     FEL            0000000000000   00000000000000000000000000
PT00001103100            518299   3910299000611032721032720210000000004428461084856Adva-Net            000000000040090     FEL            0000000000000   00000000000000000000000000
PT00001103100            518599   3910299000611032721032720210000000000841461084856Adva-Net            000000000040090     FEL            0000000000000   00000000000000000000000000
PT00001103100            518599   3910299000611032721032720210000000003596461084856Adva-Net            000000000040090     FEL            0000000000000   00000000000000000000000000
PT00001103100            518299   3910299000611032721032720210000000010860831002191TEMPLE FAC ORTHO AND000000000040109     FEL            0000000000000   00000000000000000000000000
PT00001103100            518299   3910299000611032721032720210000000015603831002191TEMPLE FAC ORTHO AND000000000040109     FEL            0000000000000   00000000000000000000000000
PT00001603100            263500   0503100000611032721032720210000001942480                                                 FEL
BT3100FE31200000001942480